{
  "contractName": "Masks",
  "abi": [
    {
      "inputs": [
        {
          "internalType": "string",
          "name": "name",
          "type": "string"
        },
        {
          "internalType": "string",
          "name": "symbol",
          "type": "string"
        },
        {
          "internalType": "address",
          "name": "nctAddress",
          "type": "address"
        }
      ],
      "stateMutability": "nonpayable",
      "type": "constructor"
    },
    {
      "anonymous": false,
      "inputs": [
        {
          "indexed": true,
          "internalType": "address",
          "name": "owner",
          "type": "address"
        },
        {
          "indexed": true,
          "internalType": "address",
          "name": "approved",
          "type": "address"
        },
        {
          "indexed": true,
          "internalType": "uint256",
          "name": "tokenId",
          "type": "uint256"
        }
      ],
      "name": "Approval",
      "type": "event"
    },
    {
      "anonymous": false,
      "inputs": [
        {
          "indexed": true,
          "internalType": "address",
          "name": "owner",
          "type": "address"
        },
        {
          "indexed": true,
          "internalType": "address",
          "name": "operator",
          "type": "address"
        },
        {
          "indexed": false,
          "internalType": "bool",
          "name": "approved",
          "type": "bool"
        }
      ],
      "name": "ApprovalForAll",
      "type": "event"
    },
    {
      "anonymous": false,
      "inputs": [
        {
          "indexed": true,
          "internalType": "uint256",
          "name": "maskIndex",
          "type": "uint256"
        },
        {
          "indexed": false,
          "internalType": "string",
          "name": "newName",
          "type": "string"
        }
      ],
      "name": "NameChange",
      "type": "event"
    },
    {
      "anonymous": false,
      "inputs": [
        {
          "indexed": true,
          "internalType": "address",
          "name": "previousOwner",
          "type": "address"
        },
        {
          "indexed": true,
          "internalType": "address",
          "name": "newOwner",
          "type": "address"
        }
      ],
      "name": "OwnershipTransferred",
      "type": "event"
    },
    {
      "anonymous": false,
      "inputs": [
        {
          "indexed": true,
          "internalType": "address",
          "name": "from",
          "type": "address"
        },
        {
          "indexed": true,
          "internalType": "address",
          "name": "to",
          "type": "address"
        },
        {
          "indexed": true,
          "internalType": "uint256",
          "name": "tokenId",
          "type": "uint256"
        }
      ],
      "name": "Transfer",
      "type": "event"
    },
    {
      "inputs": [],
      "name": "HASHMASKS_PROVENANCE",
      "outputs": [
        {
          "internalType": "string",
          "name": "",
          "type": "string"
        }
      ],
      "stateMutability": "view",
      "type": "function"
    },
    {
      "inputs": [],
      "name": "MAX_NFT_SUPPLY",
      "outputs": [
        {
          "internalType": "uint256",
          "name": "",
          "type": "uint256"
        }
      ],
      "stateMutability": "view",
      "type": "function"
    },
    {
      "inputs": [],
      "name": "NAME_CHANGE_PRICE",
      "outputs": [
        {
          "internalType": "uint256",
          "name": "",
          "type": "uint256"
        }
      ],
      "stateMutability": "view",
      "type": "function"
    },
    {
      "inputs": [],
      "name": "REVEAL_TIMESTAMP",
      "outputs": [
        {
          "internalType": "uint256",
          "name": "",
          "type": "uint256"
        }
      ],
      "stateMutability": "view",
      "type": "function"
    },
    {
      "inputs": [],
      "name": "SALE_START_TIMESTAMP",
      "outputs": [
        {
          "internalType": "uint256",
          "name": "",
          "type": "uint256"
        }
      ],
      "stateMutability": "view",
      "type": "function"
    },
    {
      "inputs": [],
      "name": "owner",
      "outputs": [
        {
          "internalType": "address",
          "name": "",
          "type": "address"
        }
      ],
      "stateMutability": "view",
      "type": "function"
    },
    {
      "inputs": [],
      "name": "renounceOwnership",
      "outputs": [],
      "stateMutability": "nonpayable",
      "type": "function"
    },
    {
      "inputs": [],
      "name": "startingIndex",
      "outputs": [
        {
          "internalType": "uint256",
          "name": "",
          "type": "uint256"
        }
      ],
      "stateMutability": "view",
      "type": "function"
    },
    {
      "inputs": [],
      "name": "startingIndexBlock",
      "outputs": [
        {
          "internalType": "uint256",
          "name": "",
          "type": "uint256"
        }
      ],
      "stateMutability": "view",
      "type": "function"
    },
    {
      "inputs": [
        {
          "internalType": "bytes4",
          "name": "interfaceId",
          "type": "bytes4"
        }
      ],
      "name": "supportsInterface",
      "outputs": [
        {
          "internalType": "bool",
          "name": "",
          "type": "bool"
        }
      ],
      "stateMutability": "view",
      "type": "function"
    },
    {
      "inputs": [
        {
          "internalType": "address",
          "name": "newOwner",
          "type": "address"
        }
      ],
      "name": "transferOwnership",
      "outputs": [],
      "stateMutability": "nonpayable",
      "type": "function"
    },
    {
      "inputs": [
        {
          "internalType": "address",
          "name": "owner",
          "type": "address"
        }
      ],
      "name": "balanceOf",
      "outputs": [
        {
          "internalType": "uint256",
          "name": "",
          "type": "uint256"
        }
      ],
      "stateMutability": "view",
      "type": "function"
    },
    {
      "inputs": [
        {
          "internalType": "uint256",
          "name": "tokenId",
          "type": "uint256"
        }
      ],
      "name": "ownerOf",
      "outputs": [
        {
          "internalType": "address",
          "name": "",
          "type": "address"
        }
      ],
      "stateMutability": "view",
      "type": "function"
    },
    {
      "inputs": [],
      "name": "name",
      "outputs": [
        {
          "internalType": "string",
          "name": "",
          "type": "string"
        }
      ],
      "stateMutability": "view",
      "type": "function"
    },
    {
      "inputs": [],
      "name": "symbol",
      "outputs": [
        {
          "internalType": "string",
          "name": "",
          "type": "string"
        }
      ],
      "stateMutability": "view",
      "type": "function"
    },
    {
      "inputs": [
        {
          "internalType": "address",
          "name": "owner",
          "type": "address"
        },
        {
          "internalType": "uint256",
          "name": "index",
          "type": "uint256"
        }
      ],
      "name": "tokenOfOwnerByIndex",
      "outputs": [
        {
          "internalType": "uint256",
          "name": "",
          "type": "uint256"
        }
      ],
      "stateMutability": "view",
      "type": "function"
    },
    {
      "inputs": [],
      "name": "totalSupply",
      "outputs": [
        {
          "internalType": "uint256",
          "name": "",
          "type": "uint256"
        }
      ],
      "stateMutability": "view",
      "type": "function"
    },
    {
      "inputs": [
        {
          "internalType": "uint256",
          "name": "index",
          "type": "uint256"
        }
      ],
      "name": "tokenByIndex",
      "outputs": [
        {
          "internalType": "uint256",
          "name": "",
          "type": "uint256"
        }
      ],
      "stateMutability": "view",
      "type": "function"
    },
    {
      "inputs": [
        {
          "internalType": "uint256",
          "name": "index",
          "type": "uint256"
        }
      ],
      "name": "tokenNameByIndex",
      "outputs": [
        {
          "internalType": "string",
          "name": "",
          "type": "string"
        }
      ],
      "stateMutability": "view",
      "type": "function"
    },
    {
      "inputs": [
        {
          "internalType": "string",
          "name": "nameString",
          "type": "string"
        }
      ],
      "name": "isNameReserved",
      "outputs": [
        {
          "internalType": "bool",
          "name": "",
          "type": "bool"
        }
      ],
      "stateMutability": "view",
      "type": "function"
    },
    {
      "inputs": [
        {
          "internalType": "uint256",
          "name": "index",
          "type": "uint256"
        }
      ],
      "name": "isMintedBeforeReveal",
      "outputs": [
        {
          "internalType": "bool",
          "name": "",
          "type": "bool"
        }
      ],
      "stateMutability": "view",
      "type": "function"
    },
    {
      "inputs": [],
      "name": "getNFTPrice",
      "outputs": [
        {
          "internalType": "uint256",
          "name": "",
          "type": "uint256"
        }
      ],
      "stateMutability": "view",
      "type": "function"
    },
    {
      "inputs": [
        {
          "internalType": "uint256",
          "name": "numberOfNfts",
          "type": "uint256"
        }
      ],
      "name": "mintNFT",
      "outputs": [],
      "stateMutability": "payable",
      "type": "function"
    },
    {
      "inputs": [],
      "name": "finalizeStartingIndex",
      "outputs": [],
      "stateMutability": "nonpayable",
      "type": "function"
    },
    {
      "inputs": [
        {
          "internalType": "uint256",
          "name": "tokenId",
          "type": "uint256"
        },
        {
          "internalType": "string",
          "name": "newName",
          "type": "string"
        }
      ],
      "name": "changeName",
      "outputs": [],
      "stateMutability": "nonpayable",
      "type": "function"
    },
    {
      "inputs": [],
      "name": "withdraw",
      "outputs": [],
      "stateMutability": "nonpayable",
      "type": "function"
    },
    {
      "inputs": [
        {
          "internalType": "address",
          "name": "to",
          "type": "address"
        },
        {
          "internalType": "uint256",
          "name": "tokenId",
          "type": "uint256"
        }
      ],
      "name": "approve",
      "outputs": [],
      "stateMutability": "nonpayable",
      "type": "function"
    },
    {
      "inputs": [
        {
          "internalType": "uint256",
          "name": "tokenId",
          "type": "uint256"
        }
      ],
      "name": "getApproved",
      "outputs": [
        {
          "internalType": "address",
          "name": "",
          "type": "address"
        }
      ],
      "stateMutability": "view",
      "type": "function"
    },
    {
      "inputs": [
        {
          "internalType": "address",
          "name": "operator",
          "type": "address"
        },
        {
          "internalType": "bool",
          "name": "approved",
          "type": "bool"
        }
      ],
      "name": "setApprovalForAll",
      "outputs": [],
      "stateMutability": "nonpayable",
      "type": "function"
    },
    {
      "inputs": [
        {
          "internalType": "address",
          "name": "owner",
          "type": "address"
        },
        {
          "internalType": "address",
          "name": "operator",
          "type": "address"
        }
      ],
      "name": "isApprovedForAll",
      "outputs": [
        {
          "internalType": "bool",
          "name": "",
          "type": "bool"
        }
      ],
      "stateMutability": "view",
      "type": "function"
    },
    {
      "inputs": [
        {
          "internalType": "address",
          "name": "from",
          "type": "address"
        },
        {
          "internalType": "address",
          "name": "to",
          "type": "address"
        },
        {
          "internalType": "uint256",
          "name": "tokenId",
          "type": "uint256"
        }
      ],
      "name": "transferFrom",
      "outputs": [],
      "stateMutability": "nonpayable",
      "type": "function"
    },
    {
      "inputs": [
        {
          "internalType": "address",
          "name": "from",
          "type": "address"
        },
        {
          "internalType": "address",
          "name": "to",
          "type": "address"
        },
        {
          "internalType": "uint256",
          "name": "tokenId",
          "type": "uint256"
        },
        {
          "internalType": "bytes",
          "name": "_data",
          "type": "bytes"
        }
      ],
      "name": "safeTransferFrom",
      "outputs": [],
      "stateMutability": "nonpayable",
      "type": "function"
    },
    {
      "inputs": [
        {
          "internalType": "address",
          "name": "from",
          "type": "address"
        },
        {
          "internalType": "address",
          "name": "to",
          "type": "address"
        },
        {
          "internalType": "uint256",
          "name": "tokenId",
          "type": "uint256"
        }
      ],
      "name": "safeTransferFrom",
      "outputs": [],
      "stateMutability": "nonpayable",
      "type": "function"
    },
    {
      "inputs": [
        {
          "internalType": "string",
          "name": "str",
          "type": "string"
        }
      ],
      "name": "validateName",
      "outputs": [
        {
          "internalType": "bool",
          "name": "",
          "type": "bool"
        }
      ],
      "stateMutability": "pure",
      "type": "function"
    },
    {
      "inputs": [
        {
          "internalType": "string",
          "name": "str",
          "type": "string"
        }
      ],
      "name": "toLower",
      "outputs": [
        {
          "internalType": "string",
          "name": "",
          "type": "string"
        }
      ],
      "stateMutability": "pure",
      "type": "function"
    }
  ],
  "bytecode": "0x60806040523480156200001157600080fd5b5060405162004e5438038062004e54833981810160405260608110156200003757600080fd5b81019080805160405193929190846401000000008211156200005857600080fd5b838201915060208201858111156200006f57600080fd5b82518660018202830111640100000000821117156200008d57600080fd5b8083526020830192505050908051906020019080838360005b83811015620000c3578082015181840152602081019050620000a6565b50505050905090810190601f168015620000f15780820380516001836020036101000a031916815260200191505b50604052602001805160405193929190846401000000008211156200011557600080fd5b838201915060208201858111156200012c57600080fd5b82518660018202830111640100000000821117156200014a57600080fd5b8083526020830192505050908051906020019080838360005b838110156200018057808201518184015260208101905062000163565b50505050905090810190601f168015620001ae5780820380516001836020036101000a031916815260200191505b50604052602001805190602001909291905050506000620001d46200034e60201b60201c565b9050806000806101000a81548173ffffffffffffffffffffffffffffffffffffffff021916908373ffffffffffffffffffffffffffffffffffffffff1602179055508073ffffffffffffffffffffffffffffffffffffffff16600073ffffffffffffffffffffffffffffffffffffffff167f8be0079c531659141344cd1fd0a4f28419497f9722a3daafe3b4186f6b6457e060405160405180910390a3506200028a6301ffc9a760e01b6200035660201b60201c565b82600c9080519060200190620002a29291906200045f565b5081600d9080519060200190620002bb9291906200045f565b5080600e60006101000a81548173ffffffffffffffffffffffffffffffffffffffff021916908373ffffffffffffffffffffffffffffffffffffffff160217905550620003156380ac58cd60e01b6200035660201b60201c565b6200032d639325454260e01b6200035660201b60201c565b6200034563780e9d6360e01b6200035660201b60201c565b50505062000505565b600033905090565b63ffffffff60e01b817bffffffffffffffffffffffffffffffffffffffffffffffffffffffff19161415620003f3576040517f08c379a000000000000000000000000000000000000000000000000000000000815260040180806020018281038252601c8152602001807f4552433136353a20696e76616c696420696e746572666163652069640000000081525060200191505060405180910390fd5b6001806000837bffffffffffffffffffffffffffffffffffffffffffffffffffffffff19167bffffffffffffffffffffffffffffffffffffffffffffffffffffffff1916815260200190815260200160002060006101000a81548160ff02191690831515021790555050565b828054600181600116156101000203166002900490600052602060002090601f016020900481019282601f10620004a257805160ff1916838001178555620004d3565b82800160010185558215620004d3579182015b82811115620004d2578251825591602001919060010190620004b5565b5b509050620004e29190620004e6565b5090565b5b8082111562000501576000816000905550600101620004e7565b5090565b61493f80620005156000396000f3fe6080604052600436106102045760003560e01c806374df39c911610118578063b88d4fde116100a0578063e36d64981161006f578063e36d649814610ed0578063e985e9c514610efb578063ef809cc914610f82578063f2fde38b14611012578063fb107a4f1461106357610204565b8063b88d4fde14610c70578063bc28d70214610d82578063c39cbef114610dd3578063cb774d4714610ea557610204565b8063946807fd116100e7578063946807fd14610a4f57806395d89b4114610a7a5780639ffdb65a14610b0a578063a22cb46514610be8578063b5077f4414610c4557610204565b806374df39c9146108885780638da5cb5b1461089f57806392642744146108e05780639416b4231461090e57610204565b80632f745c591161019b57806354b6f1611161016a57806354b6f161146106c85780636352211e146106f35780636d5224181461075857806370a082311461080c578063715018a61461087157610204565b80632f745c59146105785780633ccfd60b146105e757806342842e0e146105fe5780634f6ccce71461067957610204565b806315b56d10116101d757806315b56d10146103c957806318160ddd146104a757806318e20a38146104d257806323b872dd146104fd57610204565b806301ffc9a71461020957806306fdde0314610279578063081812fc14610309578063095ea7b31461036e575b600080fd5b34801561021557600080fd5b506102616004803603602081101561022c57600080fd5b8101908080357bffffffffffffffffffffffffffffffffffffffffffffffffffffffff1916906020019092919050505061108e565b60405180821515815260200191505060405180910390f35b34801561028557600080fd5b5061028e6110f6565b6040518080602001828103825283818151815260200191508051906020019080838360005b838110156102ce5780820151818401526020810190506102b3565b50505050905090810190601f1680156102fb5780820380516001836020036101000a031916815260200191505b509250505060405180910390f35b34801561031557600080fd5b506103426004803603602081101561032c57600080fd5b8101908080359060200190929190505050611198565b604051808273ffffffffffffffffffffffffffffffffffffffff16815260200191505060405180910390f35b34801561037a57600080fd5b506103c76004803603604081101561039157600080fd5b81019080803573ffffffffffffffffffffffffffffffffffffffff16906020019092919080359060200190929190505050611233565b005b3480156103d557600080fd5b5061048f600480360360208110156103ec57600080fd5b810190808035906020019064010000000081111561040957600080fd5b82018360208201111561041b57600080fd5b8035906020019184600183028401116401000000008311171561043d57600080fd5b91908080601f016020809104026020016040519081016040528093929190818152602001838380828437600081840152601f19601f820116905080830192505050505050509192919290505050611377565b60405180821515815260200191505060405180910390f35b3480156104b357600080fd5b506104bc6113ff565b6040518082815260200191505060405180910390f35b3480156104de57600080fd5b506104e7611410565b6040518082815260200191505060405180910390f35b34801561050957600080fd5b506105766004803603606081101561052057600080fd5b81019080803573ffffffffffffffffffffffffffffffffffffffff169060200190929190803573ffffffffffffffffffffffffffffffffffffffff1690602001909291908035906020019092919050505061141d565b005b34801561058457600080fd5b506105d16004803603604081101561059b57600080fd5b81019080803573ffffffffffffffffffffffffffffffffffffffff16906020019092919080359060200190929190505050611493565b6040518082815260200191505060405180910390f35b3480156105f357600080fd5b506105fc6114ee565b005b34801561060a57600080fd5b506106776004803603606081101561062157600080fd5b81019080803573ffffffffffffffffffffffffffffffffffffffff169060200190929190803573ffffffffffffffffffffffffffffffffffffffff1690602001909291908035906020019092919050505061161c565b005b34801561068557600080fd5b506106b26004803603602081101561069c57600080fd5b810190808035906020019092919050505061163c565b6040518082815260200191505060405180910390f35b3480156106d457600080fd5b506106dd61165f565b6040518082815260200191505060405180910390f35b3480156106ff57600080fd5b5061072c6004803603602081101561071657600080fd5b810190808035906020019092919050505061166c565b604051808273ffffffffffffffffffffffffffffffffffffffff16815260200191505060405180910390f35b34801561076457600080fd5b506107916004803603602081101561077b57600080fd5b81019080803590602001909291905050506116a3565b6040518080602001828103825283818151815260200191508051906020019080838360005b838110156107d15780820151818401526020810190506107b6565b50505050905090810190601f1680156107fe5780820380516001836020036101000a031916815260200191505b509250505060405180910390f35b34801561081857600080fd5b5061085b6004803603602081101561082f57600080fd5b81019080803573ffffffffffffffffffffffffffffffffffffffff169060200190929190505050611758565b6040518082815260200191505060405180910390f35b34801561087d57600080fd5b5061088661182d565b005b34801561089457600080fd5b5061089d6119b3565b005b3480156108ab57600080fd5b506108b4611b1d565b604051808273ffffffffffffffffffffffffffffffffffffffff16815260200191505060405180910390f35b61090c600480360360208110156108f657600080fd5b8101908080359060200190929190505050611b46565b005b34801561091a57600080fd5b506109d46004803603602081101561093157600080fd5b810190808035906020019064010000000081111561094e57600080fd5b82018360208201111561096057600080fd5b8035906020019184600183028401116401000000008311171561098257600080fd5b91908080601f016020809104026020016040519081016040528093929190818152602001838380828437600081840152601f19601f820116905080830192505050505050509192919290505050611e5f565b6040518080602001828103825283818151815260200191508051906020019080838360005b83811015610a145780820151818401526020810190506109f9565b50505050905090810190601f168015610a415780820380516001836020036101000a031916815260200191505b509250505060405180910390f35b348015610a5b57600080fd5b50610a64611fdb565b6040518082815260200191505060405180910390f35b348015610a8657600080fd5b50610a8f611fe3565b6040518080602001828103825283818151815260200191508051906020019080838360005b83811015610acf578082015181840152602081019050610ab4565b50505050905090810190601f168015610afc5780820380516001836020036101000a031916815260200191505b509250505060405180910390f35b348015610b1657600080fd5b50610bd060048036036020811015610b2d57600080fd5b8101908080359060200190640100000000811115610b4a57600080fd5b820183602082011115610b5c57600080fd5b80359060200191846001830284011164010000000083111715610b7e57600080fd5b91908080601f016020809104026020016040519081016040528093929190818152602001838380828437600081840152601f19601f820116905080830192505050505050509192919290505050612085565b60405180821515815260200191505060405180910390f35b348015610bf457600080fd5b50610c4360048036036040811015610c0b57600080fd5b81019080803573ffffffffffffffffffffffffffffffffffffffff16906020019092919080351515906020019092919050505061238d565b005b348015610c5157600080fd5b50610c5a612543565b6040518082815260200191505060405180910390f35b348015610c7c57600080fd5b50610d8060048036036080811015610c9357600080fd5b81019080803573ffffffffffffffffffffffffffffffffffffffff169060200190929190803573ffffffffffffffffffffffffffffffffffffffff1690602001909291908035906020019092919080359060200190640100000000811115610cfa57600080fd5b820183602082011115610d0c57600080fd5b80359060200191846001830284011164010000000083111715610d2e57600080fd5b91908080601f016020809104026020016040519081016040528093929190818152602001838380828437600081840152601f19601f820116905080830192505050505050509192919290505050612549565b005b348015610d8e57600080fd5b50610dbb60048036036020811015610da557600080fd5b81019080803590602001909291905050506125c1565b60405180821515815260200191505060405180910390f35b348015610ddf57600080fd5b50610ea360048036036040811015610df657600080fd5b810190808035906020019092919080359060200190640100000000811115610e1d57600080fd5b820183602082011115610e2f57600080fd5b80359060200191846001830284011164010000000083111715610e5157600080fd5b91908080601f016020809104026020016040519081016040528093929190818152602001838380828437600081840152601f19601f8201169050808301925050505050505091929192905050506125eb565b005b348015610eb157600080fd5b50610eba612cbd565b6040518082815260200191505060405180910390f35b348015610edc57600080fd5b50610ee5612cc3565b6040518082815260200191505060405180910390f35b348015610f0757600080fd5b50610f6a60048036036040811015610f1e57600080fd5b81019080803573ffffffffffffffffffffffffffffffffffffffff169060200190929190803573ffffffffffffffffffffffffffffffffffffffff169060200190929190505050612cc9565b60405180821515815260200191505060405180910390f35b348015610f8e57600080fd5b50610f97612d5d565b6040518080602001828103825283818151815260200191508051906020019080838360005b83811015610fd7578082015181840152602081019050610fbc565b50505050905090810190601f1680156110045780820380516001836020036101000a031916815260200191505b509250505060405180910390f35b34801561101e57600080fd5b506110616004803603602081101561103557600080fd5b81019080803573ffffffffffffffffffffffffffffffffffffffff169060200190929190505050612d79565b005b34801561106f57600080fd5b50611078612f84565b6040518082815260200191505060405180910390f35b600060016000837bffffffffffffffffffffffffffffffffffffffffffffffffffffffff19167bffffffffffffffffffffffffffffffffffffffffffffffffffffffff1916815260200190815260200160002060009054906101000a900460ff169050919050565b6060600c8054600181600116156101000203166002900480601f01602080910402602001604051908101604052809291908181526020018280546001816001161561010002031660029004801561118e5780601f106111635761010080835404028352916020019161118e565b820191906000526020600020905b81548152906001019060200180831161117157829003601f168201915b5050505050905090565b60006111a382613137565b6111f8576040517f08c379a000000000000000000000000000000000000000000000000000000000815260040180806020018281038252602c815260200180614840602c913960400191505060405180910390fd5b6007600083815260200190815260200160002060009054906101000a900473ffffffffffffffffffffffffffffffffffffffff169050919050565b600061123e8261166c565b90508073ffffffffffffffffffffffffffffffffffffffff168373ffffffffffffffffffffffffffffffffffffffff1614156112c5576040517f08c379a00000000000000000000000000000000000000000000000000000000081526004018080602001828103825260218152602001806148b86021913960400191505060405180910390fd5b8073ffffffffffffffffffffffffffffffffffffffff166112e4613154565b73ffffffffffffffffffffffffffffffffffffffff16148061131357506113128161130d613154565b612cc9565b5b611368576040517f08c379a00000000000000000000000000000000000000000000000000000000081526004018080602001828103825260388152602001806147096038913960400191505060405180910390fd5b611372838361315c565b505050565b6000600961138483611e5f565b6040518082805190602001908083835b602083106113b75780518252602082019150602081019050602083039250611394565b6001836020036101000a038019825116818451168082178552505050505050905001915050908152602001604051809103902060009054906101000a900460ff169050919050565b600061140b6005613215565b905090565b62127500636012d1700181565b61142e611428613154565b8261322a565b611483576040517f08c379a00000000000000000000000000000000000000000000000000000000081526004018080602001828103825260318152602001806148d96031913960400191505060405180910390fd5b61148e83838361331e565b505050565b60006114e682600460008673ffffffffffffffffffffffffffffffffffffffff1673ffffffffffffffffffffffffffffffffffffffff16815260200190815260200160002061356190919063ffffffff16565b905092915050565b6114f6613154565b73ffffffffffffffffffffffffffffffffffffffff1660008054906101000a900473ffffffffffffffffffffffffffffffffffffffff1673ffffffffffffffffffffffffffffffffffffffff16146115b6576040517f08c379a00000000000000000000000000000000000000000000000000000000081526004018080602001828103825260208152602001807f4f776e61626c653a2063616c6c6572206973206e6f7420746865206f776e657281525060200191505060405180910390fd5b60003073ffffffffffffffffffffffffffffffffffffffff163190503373ffffffffffffffffffffffffffffffffffffffff166108fc829081150290604051600060405180830381858888f19350505050158015611618573d6000803e3d6000fd5b5050565b61163783838360405180602001604052806000815250612549565b505050565b60008061165383600561357b90919063ffffffff16565b50905080915050919050565b6863345a083e94d8000081565b600061169c826040518060600160405280602981526020016147946029913960056135a79092919063ffffffff16565b9050919050565b6060600860008381526020019081526020016000208054600181600116156101000203166002900480601f01602080910402602001604051908101604052809291908181526020018280546001816001161561010002031660029004801561174c5780601f106117215761010080835404028352916020019161174c565b820191906000526020600020905b81548152906001019060200180831161172f57829003601f168201915b50505050509050919050565b60008073ffffffffffffffffffffffffffffffffffffffff168273ffffffffffffffffffffffffffffffffffffffff1614156117df576040517f08c379a000000000000000000000000000000000000000000000000000000000815260040180806020018281038252602a81526020018061476a602a913960400191505060405180910390fd5b611826600460008473ffffffffffffffffffffffffffffffffffffffff1673ffffffffffffffffffffffffffffffffffffffff1681526020019081526020016000206135c6565b9050919050565b611835613154565b73ffffffffffffffffffffffffffffffffffffffff1660008054906101000a900473ffffffffffffffffffffffffffffffffffffffff1673ffffffffffffffffffffffffffffffffffffffff16146118f5576040517f08c379a00000000000000000000000000000000000000000000000000000000081526004018080602001828103825260208152602001807f4f776e61626c653a2063616c6c6572206973206e6f7420746865206f776e657281525060200191505060405180910390fd5b600073ffffffffffffffffffffffffffffffffffffffff1660008054906101000a900473ffffffffffffffffffffffffffffffffffffffff1673ffffffffffffffffffffffffffffffffffffffff167f8be0079c531659141344cd1fd0a4f28419497f9722a3daafe3b4186f6b6457e060405160405180910390a360008060006101000a81548173ffffffffffffffffffffffffffffffffffffffff021916908373ffffffffffffffffffffffffffffffffffffffff160217905550565b600060035414611a2b576040517f08c379a000000000000000000000000000000000000000000000000000000000815260040180806020018281038252601d8152602001807f5374617274696e6720696e64657820697320616c72656164792073657400000081525060200191505060405180910390fd5b60006002541415611aa4576040517f08c379a00000000000000000000000000000000000000000000000000000000081526004018080602001828103825260208152602001807f5374617274696e6720696e64657820626c6f636b206d7573742062652073657481525060200191505060405180910390fd5b6140006002544060001c81611ab557fe5b0660038190555060ff611ad3600254436135db90919063ffffffff16565b1115611af357614000600143034060001c81611aeb57fe5b066003819055505b60006003541415611b1b57611b14600160035461362590919063ffffffff16565b6003819055505b565b60008060009054906101000a900473ffffffffffffffffffffffffffffffffffffffff16905090565b614000611b516113ff565b10611bc4576040517f08c379a00000000000000000000000000000000000000000000000000000000081526004018080602001828103825260168152602001807f53616c652068617320616c726561647920656e6465640000000000000000000081525060200191505060405180910390fd5b60008111611c3a576040517f08c379a00000000000000000000000000000000000000000000000000000000081526004018080602001828103825260188152602001807f6e756d6265724f664e6674732063616e6e6f742062652030000000000000000081525060200191505060405180910390fd5b6014811115611c94576040517f08c379a00000000000000000000000000000000000000000000000000000000081526004018080602001828103825260298152602001806147416029913960400191505060405180910390fd5b614000611cb182611ca36113ff565b61362590919063ffffffff16565b1115611d25576040517f08c379a00000000000000000000000000000000000000000000000000000000081526004018080602001828103825260168152602001807f45786365656473204d41585f4e46545f535550504c590000000000000000000081525060200191505060405180910390fd5b34611d4082611d32612f84565b6136ad90919063ffffffff16565b14611db3576040517f08c379a000000000000000000000000000000000000000000000000000000000815260040180806020018281038252601f8152602001807f45746865722076616c75652073656e74206973206e6f7420636f72726563740081525060200191505060405180910390fd5b60005b81811015611e20576000611dc86113ff565b905062127500636012d17001421015611e08576001600a600083815260200190815260200160002060006101000a81548160ff0219169083151502179055505b611e123382613733565b508080600101915050611db6565b506000600254148015611e4f5750614000611e396113ff565b1480611e4e575062127500636012d170014210155b5b15611e5c57436002819055505b50565b6060808290506060815167ffffffffffffffff81118015611e7f57600080fd5b506040519080825280601f01601f191660200182016040528015611eb25781602001600182028036833780820191505090505b50905060005b8251811015611fd0576041838281518110611ecf57fe5b602001015160f81c60f81b60f81c60ff1610158015611f0b5750605a838281518110611ef757fe5b602001015160f81c60f81b60f81c60ff1611155b15611f70576020838281518110611f1e57fe5b602001015160f81c60f81b60f81c0160f81b828281518110611f3c57fe5b60200101907effffffffffffffffffffffffffffffffffffffffffffffffffffffffffffff1916908160001a905350611fc3565b828181518110611f7c57fe5b602001015160f81c60f81b828281518110611f9357fe5b60200101907effffffffffffffffffffffffffffffffffffffffffffffffffffffffffffff1916908160001a9053505b8080600101915050611eb8565b508092505050919050565b636012d17081565b6060600d8054600181600116156101000203166002900480601f01602080910402602001604051908101604052809291908181526020018280546001816001161561010002031660029004801561207b5780601f106120505761010080835404028352916020019161207b565b820191906000526020600020905b81548152906001019060200180831161205e57829003601f168201915b5050505050905090565b600060608290506001815110156120a0576000915050612388565b6019815111156120b4576000915050612388565b602060f81b816000815181106120c657fe5b602001015160f81c60f81b7effffffffffffffffffffffffffffffffffffffffffffffffffffffffffffff19161415612103576000915050612388565b602060f81b8160018351038151811061211857fe5b602001015160f81c60f81b7effffffffffffffffffffffffffffffffffffffffffffffffffffffffffffff19161415612155576000915050612388565b60008160008151811061216457fe5b602001015160f81c60f81b905060005b825181101561238057600083828151811061218b57fe5b602001015160f81c60f81b9050602060f81b817effffffffffffffffffffffffffffffffffffffffffffffffffffffffffffff19161480156121f25750602060f81b837effffffffffffffffffffffffffffffffffffffffffffffffffffffffffffff1916145b15612204576000945050505050612388565b603060f81b817effffffffffffffffffffffffffffffffffffffffffffffffffffffffffffff1916101580156122605750603960f81b817effffffffffffffffffffffffffffffffffffffffffffffffffffffffffffff191611155b1580156122c65750604160f81b817effffffffffffffffffffffffffffffffffffffffffffffffffffffffffffff1916101580156122c45750605a60f81b817effffffffffffffffffffffffffffffffffffffffffffffffffffffffffffff191611155b155b801561232b5750606160f81b817effffffffffffffffffffffffffffffffffffffffffffffffffffffffffffff1916101580156123295750607a60f81b817effffffffffffffffffffffffffffffffffffffffffffffffffffffffffffff191611155b155b801561235d5750602060f81b817effffffffffffffffffffffffffffffffffffffffffffffffffffffffffffff191614155b1561236f576000945050505050612388565b809250508080600101915050612174565b506001925050505b919050565b612395613154565b73ffffffffffffffffffffffffffffffffffffffff168273ffffffffffffffffffffffffffffffffffffffff161415612436576040517f08c379a00000000000000000000000000000000000000000000000000000000081526004018080602001828103825260198152602001807f4552433732313a20617070726f766520746f2063616c6c65720000000000000081525060200191505060405180910390fd5b80600b6000612443613154565b73ffffffffffffffffffffffffffffffffffffffff1673ffffffffffffffffffffffffffffffffffffffff16815260200190815260200160002060008473ffffffffffffffffffffffffffffffffffffffff1673ffffffffffffffffffffffffffffffffffffffff16815260200190815260200160002060006101000a81548160ff0219169083151502179055508173ffffffffffffffffffffffffffffffffffffffff166124f0613154565b73ffffffffffffffffffffffffffffffffffffffff167f17307eab39ab6107e8899845ad3d59bd9653f200f220920489ca2b5937696c318360405180821515815260200191505060405180910390a35050565b61400081565b61255a612554613154565b8361322a565b6125af576040517f08c379a00000000000000000000000000000000000000000000000000000000081526004018080602001828103825260318152602001806148d96031913960400191505060405180910390fd5b6125bb84848484613751565b50505050565b6000600a600083815260200190815260200160002060009054906101000a900460ff169050919050565b60006125f68361166c565b90508073ffffffffffffffffffffffffffffffffffffffff16612617613154565b73ffffffffffffffffffffffffffffffffffffffff16146126a0576040517f08c379a000000000000000000000000000000000000000000000000000000000815260040180806020018281038252601f8152602001807f4552433732313a2063616c6c6572206973206e6f7420746865206f776e65720081525060200191505060405180910390fd5b600115156126ad83612085565b151514612722576040517f08c379a00000000000000000000000000000000000000000000000000000000081526004018080602001828103825260148152602001807f4e6f7420612076616c6964206e6577206e616d6500000000000000000000000081525060200191505060405180910390fd5b60026008600085815260200190815260200160002060405180828054600181600116156101000203166002900480156127925780601f10612770576101008083540402835291820191612792565b820191906000526020600020905b81548152906001019060200180831161277e575b5050915050602060405180830381855afa1580156127b4573d6000803e3d6000fd5b5050506040513d60208110156127c957600080fd5b81019080805190602001909291905050506002836040518082805190602001908083835b6020831061281057805182526020820191506020810190506020830392506127ed565b6001836020036101000a038019825116818451168082178552505050505050905001915050602060405180830381855afa158015612852573d6000803e3d6000fd5b5050506040513d602081101561286757600080fd5b810190808051906020019092919050505014156128cf576040517f08c379a00000000000000000000000000000000000000000000000000000000081526004018080602001828103825260238152602001806148956023913960400191505060405180910390fd5b600015156128dc83611377565b151514612951576040517f08c379a00000000000000000000000000000000000000000000000000000000081526004018080602001828103825260158152602001807f4e616d6520616c7265616479207265736572766564000000000000000000000081525060200191505060405180910390fd5b600e60009054906101000a900473ffffffffffffffffffffffffffffffffffffffff1673ffffffffffffffffffffffffffffffffffffffff166323b872dd33306863345a083e94d800006040518463ffffffff1660e01b8152600401808473ffffffffffffffffffffffffffffffffffffffff1681526020018373ffffffffffffffffffffffffffffffffffffffff1681526020018281526020019350505050602060405180830381600087803b158015612a0b57600080fd5b505af1158015612a1f573d6000803e3d6000fd5b505050506040513d6020811015612a3557600080fd5b8101908080519060200190929190505050506000600860008581526020019081526020016000208054600181600116156101000203166002900490501115612b2e57612b2d600860008581526020019081526020016000208054600181600116156101000203166002900480601f016020809104026020016040519081016040528092919081815260200182805460018160011615610100020316600290048015612b215780601f10612af657610100808354040283529160200191612b21565b820191906000526020600020905b815481529060010190602001808311612b0457829003601f168201915b505050505060006137c3565b5b612b398260016137c3565b81600860008581526020019081526020016000209080519060200190612b6092919061457b565b50600e60009054906101000a900473ffffffffffffffffffffffffffffffffffffffff1673ffffffffffffffffffffffffffffffffffffffff166342966c686863345a083e94d800006040518263ffffffff1660e01b815260040180828152602001915050602060405180830381600087803b158015612bdf57600080fd5b505af1158015612bf3573d6000803e3d6000fd5b505050506040513d6020811015612c0957600080fd5b810190808051906020019092919050505050827f7e632a301794d8d4a81ea7e20f37d1947158d36e66403af04ba85dd194b66f1b836040518080602001828103825283818151815260200191508051906020019080838360005b83811015612c7e578082015181840152602081019050612c63565b50505050905090810190601f168015612cab5780820380516001836020036101000a031916815260200191505b509250505060405180910390a2505050565b60035481565b60025481565b6000600b60008473ffffffffffffffffffffffffffffffffffffffff1673ffffffffffffffffffffffffffffffffffffffff16815260200190815260200160002060008373ffffffffffffffffffffffffffffffffffffffff1673ffffffffffffffffffffffffffffffffffffffff16815260200190815260200160002060009054906101000a900460ff16905092915050565b6040518060600160405280604081526020016147bd6040913981565b612d81613154565b73ffffffffffffffffffffffffffffffffffffffff1660008054906101000a900473ffffffffffffffffffffffffffffffffffffffff1673ffffffffffffffffffffffffffffffffffffffff1614612e41576040517f08c379a00000000000000000000000000000000000000000000000000000000081526004018080602001828103825260208152602001807f4f776e61626c653a2063616c6c6572206973206e6f7420746865206f776e657281525060200191505060405180910390fd5b600073ffffffffffffffffffffffffffffffffffffffff168173ffffffffffffffffffffffffffffffffffffffff161415612ec7576040517f08c379a000000000000000000000000000000000000000000000000000000000815260040180806020018281038252602681526020018061466d6026913960400191505060405180910390fd5b8073ffffffffffffffffffffffffffffffffffffffff1660008054906101000a900473ffffffffffffffffffffffffffffffffffffffff1673ffffffffffffffffffffffffffffffffffffffff167f8be0079c531659141344cd1fd0a4f28419497f9722a3daafe3b4186f6b6457e060405160405180910390a3806000806101000a81548173ffffffffffffffffffffffffffffffffffffffff021916908373ffffffffffffffffffffffffffffffffffffffff16021790555050565b6000636012d170421015613000576040517f08c379a00000000000000000000000000000000000000000000000000000000081526004018080602001828103825260148152602001807f53616c6520686173206e6f74207374617274656400000000000000000000000081525060200191505060405180910390fd5b61400061300b6113ff565b1061307e576040517f08c379a00000000000000000000000000000000000000000000000000000000081526004018080602001828103825260168152602001807f53616c652068617320616c726561647920656e6465640000000000000000000081525060200191505060405180910390fd5b60006130886113ff565b9050613ffd81106130a55768056bc75e2d63100000915050613134565b613e8081106130bf576729a2241af62c0000915050613134565b613a9881106130d9576717979cfe362a0000915050613134565b612af881106130f357670c7d713b49da0000915050613134565b611b58811061310d576706f05b59d3b20000915050613134565b610bb8811061312757670429d069189e0000915050613134565b67016345785d8a00009150505b90565b600061314d82600561385090919063ffffffff16565b9050919050565b600033905090565b816007600083815260200190815260200160002060006101000a81548173ffffffffffffffffffffffffffffffffffffffff021916908373ffffffffffffffffffffffffffffffffffffffff160217905550808273ffffffffffffffffffffffffffffffffffffffff166131cf8361166c565b73ffffffffffffffffffffffffffffffffffffffff167f8c5be1e5ebec7d5bd14f71427d1e84f3dd0314c0f7b2291e5b200ac8c7c3b92560405160405180910390a45050565b60006132238260000161386a565b9050919050565b600061323582613137565b61328a576040517f08c379a000000000000000000000000000000000000000000000000000000000815260040180806020018281038252602c8152602001806146dd602c913960400191505060405180910390fd5b60006132958361166c565b90508073ffffffffffffffffffffffffffffffffffffffff168473ffffffffffffffffffffffffffffffffffffffff16148061330457508373ffffffffffffffffffffffffffffffffffffffff166132ec84611198565b73ffffffffffffffffffffffffffffffffffffffff16145b8061331557506133148185612cc9565b5b91505092915050565b8273ffffffffffffffffffffffffffffffffffffffff1661333e8261166c565b73ffffffffffffffffffffffffffffffffffffffff16146133aa576040517f08c379a000000000000000000000000000000000000000000000000000000000815260040180806020018281038252602981526020018061486c6029913960400191505060405180910390fd5b600073ffffffffffffffffffffffffffffffffffffffff168273ffffffffffffffffffffffffffffffffffffffff161415613430576040517f08c379a00000000000000000000000000000000000000000000000000000000081526004018080602001828103825260248152602001806146936024913960400191505060405180910390fd5b61343b83838361387b565b61344660008261315c565b61349781600460008673ffffffffffffffffffffffffffffffffffffffff1673ffffffffffffffffffffffffffffffffffffffff16815260200190815260200160002061388090919063ffffffff16565b506134e981600460008573ffffffffffffffffffffffffffffffffffffffff1673ffffffffffffffffffffffffffffffffffffffff16815260200190815260200160002061389a90919063ffffffff16565b50613500818360056138b49092919063ffffffff16565b50808273ffffffffffffffffffffffffffffffffffffffff168473ffffffffffffffffffffffffffffffffffffffff167fddf252ad1be2c89b69c2b068fc378daa952ba7f163c4a11628f55a4df523b3ef60405160405180910390a4505050565b600061357083600001836138e9565b60001c905092915050565b60008060008061358e866000018661396c565b915091508160001c8160001c9350935050509250929050565b60006135ba846000018460001b84613a05565b60001c90509392505050565b60006135d482600001613afb565b9050919050565b600061361d83836040518060400160405280601e81526020017f536166654d6174683a207375627472616374696f6e206f766572666c6f770000815250613b0c565b905092915050565b6000808284019050838110156136a3576040517f08c379a000000000000000000000000000000000000000000000000000000000815260040180806020018281038252601b8152602001807f536166654d6174683a206164646974696f6e206f766572666c6f77000000000081525060200191505060405180910390fd5b8091505092915050565b6000808314156136c0576000905061372d565b60008284029050828482816136d157fe5b0414613728576040517f08c379a000000000000000000000000000000000000000000000000000000000815260040180806020018281038252602181526020018061481f6021913960400191505060405180910390fd5b809150505b92915050565b61374d828260405180602001604052806000815250613bcc565b5050565b61375c84848461331e565b61376884848484613c3d565b6137bd576040517f08c379a000000000000000000000000000000000000000000000000000000000815260040180806020018281038252603281526020018061463b6032913960400191505060405180910390fd5b50505050565b8060096137cf84611e5f565b6040518082805190602001908083835b6020831061380257805182526020820191506020810190506020830392506137df565b6001836020036101000a038019825116818451168082178552505050505050905001915050908152602001604051809103902060006101000a81548160ff0219169083151502179055505050565b6000613862836000018360001b613e56565b905092915050565b600081600001805490509050919050565b505050565b6000613892836000018360001b613e79565b905092915050565b60006138ac836000018360001b613f61565b905092915050565b60006138e0846000018460001b8473ffffffffffffffffffffffffffffffffffffffff1660001b613fd1565b90509392505050565b60008183600001805490501161394a576040517f08c379a00000000000000000000000000000000000000000000000000000000081526004018080602001828103825260228152602001806146196022913960400191505060405180910390fd5b82600001828154811061395957fe5b9060005260206000200154905092915050565b600080828460000180549050116139ce576040517f08c379a00000000000000000000000000000000000000000000000000000000081526004018080602001828103825260228152602001806147fd6022913960400191505060405180910390fd5b60008460000184815481106139df57fe5b906000526020600020906002020190508060000154816001015492509250509250929050565b60008084600101600085815260200190815260200160002054905060008114158390613acc576040517f08c379a00000000000000000000000000000000000000000000000000000000081526004018080602001828103825283818151815260200191508051906020019080838360005b83811015613a91578082015181840152602081019050613a76565b50505050905090810190601f168015613abe5780820380516001836020036101000a031916815260200191505b509250505060405180910390fd5b50846000016001820381548110613adf57fe5b9060005260206000209060020201600101549150509392505050565b600081600001805490509050919050565b6000838311158290613bb9576040517f08c379a00000000000000000000000000000000000000000000000000000000081526004018080602001828103825283818151815260200191508051906020019080838360005b83811015613b7e578082015181840152602081019050613b63565b50505050905090810190601f168015613bab5780820380516001836020036101000a031916815260200191505b509250505060405180910390fd5b5060008385039050809150509392505050565b613bd683836140ad565b613be36000848484613c3d565b613c38576040517f08c379a000000000000000000000000000000000000000000000000000000000815260040180806020018281038252603281526020018061463b6032913960400191505060405180910390fd5b505050565b6000613c5e8473ffffffffffffffffffffffffffffffffffffffff166142a1565b613c6b5760019050613e4e565b6060613dd563150b7a0260e01b613c80613154565b888787604051602401808573ffffffffffffffffffffffffffffffffffffffff1681526020018473ffffffffffffffffffffffffffffffffffffffff16815260200183815260200180602001828103825283818151815260200191508051906020019080838360005b83811015613d04578082015181840152602081019050613ce9565b50505050905090810190601f168015613d315780820380516001836020036101000a031916815260200191505b5095505050505050604051602081830303815290604052907bffffffffffffffffffffffffffffffffffffffffffffffffffffffff19166020820180517bffffffffffffffffffffffffffffffffffffffffffffffffffffffff838183161783525050505060405180606001604052806032815260200161463b603291398773ffffffffffffffffffffffffffffffffffffffff166142b49092919063ffffffff16565b90506000818060200190516020811015613dee57600080fd5b8101908080519060200190929190505050905063150b7a0260e01b7bffffffffffffffffffffffffffffffffffffffffffffffffffffffff1916817bffffffffffffffffffffffffffffffffffffffffffffffffffffffff191614925050505b949350505050565b600080836001016000848152602001908152602001600020541415905092915050565b60008083600101600084815260200190815260200160002054905060008114613f555760006001820390506000600186600001805490500390506000866000018281548110613ec457fe5b9060005260206000200154905080876000018481548110613ee157fe5b9060005260206000200181905550600183018760010160008381526020019081526020016000208190555086600001805480613f1957fe5b60019003818190600052602060002001600090559055866001016000878152602001908152602001600020600090556001945050505050613f5b565b60009150505b92915050565b6000613f6d83836142cc565b613fc6578260000182908060018154018082558091505060019003906000526020600020016000909190919091505582600001805490508360010160008481526020019081526020016000208190555060019050613fcb565b600090505b92915050565b6000808460010160008581526020019081526020016000205490506000811415614078578460000160405180604001604052808681526020018581525090806001815401808255809150506001900390600052602060002090600202016000909190919091506000820151816000015560208201518160010155505084600001805490508560010160008681526020019081526020016000208190555060019150506140a6565b8285600001600183038154811061408b57fe5b90600052602060002090600202016001018190555060009150505b9392505050565b600073ffffffffffffffffffffffffffffffffffffffff168273ffffffffffffffffffffffffffffffffffffffff161415614150576040517f08c379a00000000000000000000000000000000000000000000000000000000081526004018080602001828103825260208152602001807f4552433732313a206d696e7420746f20746865207a65726f206164647265737381525060200191505060405180910390fd5b61415981613137565b156141cc576040517f08c379a000000000000000000000000000000000000000000000000000000000815260040180806020018281038252601c8152602001807f4552433732313a20746f6b656e20616c7265616479206d696e7465640000000081525060200191505060405180910390fd5b6141d86000838361387b565b61422981600460008573ffffffffffffffffffffffffffffffffffffffff1673ffffffffffffffffffffffffffffffffffffffff16815260200190815260200160002061389a90919063ffffffff16565b50614240818360056138b49092919063ffffffff16565b50808273ffffffffffffffffffffffffffffffffffffffff16600073ffffffffffffffffffffffffffffffffffffffff167fddf252ad1be2c89b69c2b068fc378daa952ba7f163c4a11628f55a4df523b3ef60405160405180910390a45050565b600080823b905060008111915050919050565b60606142c384846000856142ef565b90509392505050565b600080836001016000848152602001908152602001600020541415905092915050565b6060823073ffffffffffffffffffffffffffffffffffffffff16311015614361576040517f08c379a00000000000000000000000000000000000000000000000000000000081526004018080602001828103825260268152602001806146b76026913960400191505060405180910390fd5b61436a856142a1565b6143dc576040517f08c379a000000000000000000000000000000000000000000000000000000000815260040180806020018281038252601d8152602001807f416464726573733a2063616c6c20746f206e6f6e2d636f6e747261637400000081525060200191505060405180910390fd5b600060608673ffffffffffffffffffffffffffffffffffffffff1685876040518082805190602001908083835b6020831061442c5780518252602082019150602081019050602083039250614409565b6001836020036101000a03801982511681845116808217855250505050505090500191505060006040518083038185875af1925050503d806000811461448e576040519150601f19603f3d011682016040523d82523d6000602084013e614493565b606091505b50915091506144a38282866144af565b92505050949350505050565b606083156144bf57829050614574565b6000835111156144d25782518084602001fd5b816040517f08c379a00000000000000000000000000000000000000000000000000000000081526004018080602001828103825283818151815260200191508051906020019080838360005b8381101561453957808201518184015260208101905061451e565b50505050905090810190601f1680156145665780820380516001836020036101000a031916815260200191505b509250505060405180910390fd5b9392505050565b828054600181600116156101000203166002900490600052602060002090601f016020900481019282601f106145bc57805160ff19168380011785556145ea565b828001600101855582156145ea579182015b828111156145e95782518255916020019190600101906145ce565b5b5090506145f791906145fb565b5090565b5b808211156146145760008160009055506001016145fc565b509056fe456e756d657261626c655365743a20696e646578206f7574206f6620626f756e64734552433732313a207472616e7366657220746f206e6f6e20455243373231526563656976657220696d706c656d656e7465724f776e61626c653a206e6577206f776e657220697320746865207a65726f20616464726573734552433732313a207472616e7366657220746f20746865207a65726f2061646472657373416464726573733a20696e73756666696369656e742062616c616e636520666f722063616c6c4552433732313a206f70657261746f7220717565727920666f72206e6f6e6578697374656e7420746f6b656e4552433732313a20617070726f76652063616c6c6572206973206e6f74206f776e6572206e6f7220617070726f76656420666f7220616c6c596f75206d6179206e6f7420627579206d6f7265207468616e203230204e465473206174206f6e63654552433732313a2062616c616e636520717565727920666f7220746865207a65726f20616464726573734552433732313a206f776e657220717565727920666f72206e6f6e6578697374656e7420746f6b656e64663736306337373161643030366561636530643730353338336237343135383936376537386336653938306233356636373032343962353832326334326531456e756d657261626c654d61703a20696e646578206f7574206f6620626f756e6473536166654d6174683a206d756c7469706c69636174696f6e206f766572666c6f774552433732313a20617070726f76656420717565727920666f72206e6f6e6578697374656e7420746f6b656e4552433732313a207472616e73666572206f6620746f6b656e2074686174206973206e6f74206f776e4e6577206e616d652069732073616d65206173207468652063757272656e74206f6e654552433732313a20617070726f76616c20746f2063757272656e74206f776e65724552433732313a207472616e736665722063616c6c6572206973206e6f74206f776e6572206e6f7220617070726f766564a2646970667358221220abf64c99f9f8c6a3d9ca7fd20608392dfedaec8f1a8d9685ab309fa2b106000164736f6c63430007000033",
  "immutableReferences": {},
  "source": "pragma solidity ^0.7.0;\n\nimport \"../utils/IERC165.sol\";\nimport \"../utils/ERC165.sol\";\nimport \"../utils/Address.sol\";\nimport \"../utils/EnumerableMap.sol\";\nimport \"../utils/EnumerableSet.sol\";\nimport \"../utils/SafeMath.sol\";\nimport \"../utils/Strings.sol\";\nimport \"../utils/Context.sol\";\nimport \"../utils/Ownable.sol\";\nimport \"../utils/IERC20.sol\";\nimport \"../utils//IQueens.sol\";\nimport \"../utils/IERC721Enumerable.sol\";\n\n/**\n * @title ERC-721 Non-Fungible Token Standard, optional metadata extension\n * @dev See https://eips.ethereum.org/EIPS/eip-721\n */\ninterface IERC721Metadata is IERC721 {\n\n    /**\n     * @dev Returns the token collection name.\n     */\n    function name() external view returns (string memory);\n\n    /**\n     * @dev Returns the token collection symbol.\n     */\n    function symbol() external view returns (string memory);\n}\n\n/**\n * @title ERC721 token receiver interface\n * @dev Interface for any contract that wants to support safeTransfers\n * from ERC721 asset contracts.\n */\ninterface IERC721Receiver {\n    /**\n     * @dev Whenever an {IERC721} `tokenId` token is transferred to this contract via {IERC721-safeTransferFrom}\n     * by `operator` from `from`, this function is called.\n     *\n     * It must return its Solidity selector to confirm the token transfer.\n     * If any other value is returned or the interface is not implemented by the recipient, the transfer will be reverted.\n     *\n     * The selector can be obtained in Solidity with `IERC721.onERC721Received.selector`.\n     */\n    function onERC721Received(address operator, address from, uint256 tokenId, bytes calldata data) external returns (bytes4);\n}\n\n/**\n * @title Hashmasks contract\n * @dev Extends ERC721 Non-Fungible Token Standard basic implementation\n */\ncontract Masks is Context, Ownable, ERC165, IQueens, IERC721Metadata {\n    using SafeMath for uint256;\n    using Address for address;\n    using EnumerableSet for EnumerableSet.UintSet;\n    using EnumerableMap for EnumerableMap.UintToAddressMap;\n    using Strings for uint256;\n\n    // Public variables\n\n    // This is the provenance record of all Hashmasks artwork in existence\n    string public constant HASHMASKS_PROVENANCE = \"df760c771ad006eace0d705383b74158967e78c6e980b35f670249b5822c42e1\";\n\n    uint256 public constant SALE_START_TIMESTAMP = 1611846000;\n\n    // Time after which hash masks are randomized and allotted\n    uint256 public constant REVEAL_TIMESTAMP = SALE_START_TIMESTAMP + (86400 * 14);\n\n    uint256 public constant NAME_CHANGE_PRICE = 1830 * (10 ** 18);\n\n    uint256 public constant MAX_NFT_SUPPLY = 16384;\n\n    uint256 public startingIndexBlock;\n\n    uint256 public startingIndex;\n\n    // Equals to `bytes4(keccak256(\"onERC721Received(address,address,uint256,bytes)\"))`\n    // which can be also obtained as `IERC721Receiver(0).onERC721Received.selector`\n    bytes4 private constant _ERC721_RECEIVED = 0x150b7a02;\n\n    // Mapping from holder address to their (enumerable) set of owned tokens\n    mapping (address => EnumerableSet.UintSet) private _holderTokens;\n\n    // Enumerable mapping from token ids to their owners\n    EnumerableMap.UintToAddressMap private _tokenOwners;\n\n    // Mapping from token ID to approved address\n    mapping (uint256 => address) private _tokenApprovals;\n\n    // Mapping from token ID to name\n    mapping (uint256 => string) private _tokenName;\n\n    // Mapping if certain name string has already been reserved\n    mapping (string => bool) private _nameReserved;\n\n    // Mapping from token ID to whether the Hashmask was minted before reveal\n    mapping (uint256 => bool) private _mintedBeforeReveal;\n\n    // Mapping from owner to operator approvals\n    mapping (address => mapping (address => bool)) private _operatorApprovals;\n\n    // Token name\n    string private _name;\n\n    // Token symbol\n    string private _symbol;\n\n    // Name change token address\n    address private _nctAddress;\n\n    /*\n     *     bytes4(keccak256('balanceOf(address)')) == 0x70a08231\n     *     bytes4(keccak256('ownerOf(uint256)')) == 0x6352211e\n     *     bytes4(keccak256('approve(address,uint256)')) == 0x095ea7b3\n     *     bytes4(keccak256('getApproved(uint256)')) == 0x081812fc\n     *     bytes4(keccak256('setApprovalForAll(address,bool)')) == 0xa22cb465\n     *     bytes4(keccak256('isApprovedForAll(address,address)')) == 0xe985e9c5\n     *     bytes4(keccak256('transferFrom(address,address,uint256)')) == 0x23b872dd\n     *     bytes4(keccak256('safeTransferFrom(address,address,uint256)')) == 0x42842e0e\n     *     bytes4(keccak256('safeTransferFrom(address,address,uint256,bytes)')) == 0xb88d4fde\n     *\n     *     => 0x70a08231 ^ 0x6352211e ^ 0x095ea7b3 ^ 0x081812fc ^\n     *        0xa22cb465 ^ 0xe985e9c5 ^ 0x23b872dd ^ 0x42842e0e ^ 0xb88d4fde == 0x80ac58cd\n     */\n    bytes4 private constant _INTERFACE_ID_ERC721 = 0x80ac58cd;\n\n    /*\n     *     bytes4(keccak256('name()')) == 0x06fdde03\n     *     bytes4(keccak256('symbol()')) == 0x95d89b41\n     *\n     *     => 0x06fdde03 ^ 0x95d89b41 == 0x93254542\n     */\n    bytes4 private constant _INTERFACE_ID_ERC721_METADATA = 0x93254542;\n\n    /*\n     *     bytes4(keccak256('totalSupply()')) == 0x18160ddd\n     *     bytes4(keccak256('tokenOfOwnerByIndex(address,uint256)')) == 0x2f745c59\n     *     bytes4(keccak256('tokenByIndex(uint256)')) == 0x4f6ccce7\n     *\n     *     => 0x18160ddd ^ 0x2f745c59 ^ 0x4f6ccce7 == 0x780e9d63\n     */\n    bytes4 private constant _INTERFACE_ID_ERC721_ENUMERABLE = 0x780e9d63;\n\n    // Events\n    event NameChange (uint256 indexed maskIndex, string newName);\n\n    /**\n     * @dev Initializes the contract by setting a `name` and a `symbol` to the token collection.\n     */\n    constructor (string memory name, string memory symbol, address nctAddress) {\n        _name = name;\n        _symbol = symbol;\n        _nctAddress = nctAddress;\n\n        // register the supported interfaces to conform to ERC721 via ERC165\n        _registerInterface(_INTERFACE_ID_ERC721);\n        _registerInterface(_INTERFACE_ID_ERC721_METADATA);\n        _registerInterface(_INTERFACE_ID_ERC721_ENUMERABLE);\n    }\n\n    /**\n     * @dev See {IERC721-balanceOf}.\n     */\n    function balanceOf(address owner) public view override returns (uint256) {\n        require(owner != address(0), \"ERC721: balance query for the zero address\");\n\n        return _holderTokens[owner].length();\n    }\n\n    /**\n     * @dev See {IERC721-ownerOf}.\n     */\n    function ownerOf(uint256 tokenId) public view override returns (address) {\n        return _tokenOwners.get(tokenId, \"ERC721: owner query for nonexistent token\");\n    }\n\n    /**\n     * @dev See {IERC721Metadata-name}.\n     */\n    function name() public view override returns (string memory) {\n        return _name;\n    }\n\n    /**\n     * @dev See {IERC721Metadata-symbol}.\n     */\n    function symbol() public view override returns (string memory) {\n        return _symbol;\n    }\n\n    /**\n     * @dev See {IERC721Enumerable-tokenOfOwnerByIndex}.\n     */\n    function tokenOfOwnerByIndex(address owner, uint256 index) public view override returns (uint256) {\n        return _holderTokens[owner].at(index);\n    }\n\n    /**\n     * @dev See {IERC721Enumerable-totalSupply}.\n     */\n    function totalSupply() public view override returns (uint256) {\n        // _tokenOwners are indexed by tokenIds, so .length() returns the number of tokenIds\n        return _tokenOwners.length();\n    }\n\n    /**\n     * @dev See {IERC721Enumerable-tokenByIndex}.\n     */\n    function tokenByIndex(uint256 index) public view override returns (uint256) {\n        (uint256 tokenId, ) = _tokenOwners.at(index);\n        return tokenId;\n    }\n\n    /**\n     * @dev Returns name of the NFT at index.\n     */\n    function tokenNameByIndex(uint256 index) public view returns (string memory) {\n        return _tokenName[index];\n    }\n\n    /**\n     * @dev Returns if the name has been reserved.\n     */\n    function isNameReserved(string memory nameString) public view returns (bool) {\n        return _nameReserved[toLower(nameString)];\n    }\n\n    /**\n     * @dev Returns if the NFT has been minted before reveal phase\n     */\n    function isMintedBeforeReveal(uint256 index) public view override returns (bool) {\n        return _mintedBeforeReveal[index];\n    }\n\n    /**\n     * @dev Gets current Hashmask Price\n     */\n    function getNFTPrice() public view returns (uint256) {\n        require(block.timestamp >= SALE_START_TIMESTAMP, \"Sale has not started\");\n        require(totalSupply() < MAX_NFT_SUPPLY, \"Sale has already ended\");\n\n        uint currentSupply = totalSupply();\n\n        if (currentSupply >= 16381) {\n            return 100000000000000000000; // 16381 - 16383 100 ETH\n        } else if (currentSupply >= 16000) {\n            return 3000000000000000000; // 16000 - 16380 3.0 ETH\n        } else if (currentSupply >= 15000) {\n            return 1700000000000000000; // 15000  - 15999 1.7 ETH\n        } else if (currentSupply >= 11000) {\n            return 900000000000000000; // 11000 - 14999 0.9 ETH\n        } else if (currentSupply >= 7000) {\n            return 500000000000000000; // 7000 - 10999 0.5 ETH\n        } else if (currentSupply >= 3000) {\n            return 300000000000000000; // 3000 - 6999 0.3 ETH\n        } else {\n            return 100000000000000000; // 0 - 2999 0.1 ETH \n        }\n    }\n\n    /**\n    * @dev Mints Masks\n    */\n    function mintNFT(uint256 numberOfNfts) public payable {\n        require(totalSupply() < MAX_NFT_SUPPLY, \"Sale has already ended\");\n        require(numberOfNfts > 0, \"numberOfNfts cannot be 0\");\n        require(numberOfNfts <= 20, \"You may not buy more than 20 NFTs at once\");\n        require(totalSupply().add(numberOfNfts) <= MAX_NFT_SUPPLY, \"Exceeds MAX_NFT_SUPPLY\");\n        require(getNFTPrice().mul(numberOfNfts) == msg.value, \"Ether value sent is not correct\");\n\n        for (uint i = 0; i < numberOfNfts; i++) {\n            uint mintIndex = totalSupply();\n            if (block.timestamp < REVEAL_TIMESTAMP) {\n                _mintedBeforeReveal[mintIndex] = true;\n            }\n            _safeMint(msg.sender, mintIndex);\n        }\n\n        /**\n        * Source of randomness. Theoretical miner withhold manipulation possible but should be sufficient in a pragmatic sense\n        */\n        if (startingIndexBlock == 0 && (totalSupply() == MAX_NFT_SUPPLY || block.timestamp >= REVEAL_TIMESTAMP)) {\n            startingIndexBlock = block.number;\n        }\n    }\n\n    /**\n     * @dev Finalize starting index\n     */\n    function finalizeStartingIndex() public {\n        require(startingIndex == 0, \"Starting index is already set\");\n        require(startingIndexBlock != 0, \"Starting index block must be set\");\n        \n        startingIndex = uint(blockhash(startingIndexBlock)) % MAX_NFT_SUPPLY;\n        // Just a sanity case in the worst case if this function is called late (EVM only stores last 256 block hashes)\n        if (block.number.sub(startingIndexBlock) > 255) {\n            startingIndex = uint(blockhash(block.number-1)) % MAX_NFT_SUPPLY;\n        }\n        // Prevent default sequence\n        if (startingIndex == 0) {\n            startingIndex = startingIndex.add(1);\n        }\n    }\n\n    /**\n     * @dev Changes the name for Hashmask tokenId\n     */\n    function changeName(uint256 tokenId, string memory newName) public {\n        address owner = ownerOf(tokenId);\n\n        require(_msgSender() == owner, \"ERC721: caller is not the owner\");\n        require(validateName(newName) == true, \"Not a valid new name\");\n        require(sha256(bytes(newName)) != sha256(bytes(_tokenName[tokenId])), \"New name is same as the current one\");\n        require(isNameReserved(newName) == false, \"Name already reserved\");\n\n        IERC20(_nctAddress).transferFrom(msg.sender, address(this), NAME_CHANGE_PRICE);\n        // If already named, dereserve old name\n        if (bytes(_tokenName[tokenId]).length > 0) {\n            toggleReserveName(_tokenName[tokenId], false);\n        }\n        toggleReserveName(newName, true);\n        _tokenName[tokenId] = newName;\n        IERC20(_nctAddress).burn(NAME_CHANGE_PRICE);\n        emit NameChange(tokenId, newName);\n    }\n\n    /**\n     * @dev Withdraw ether from this contract (Callable by owner)\n    */\n    function withdraw() onlyOwner public {\n        uint balance = address(this).balance;\n        msg.sender.transfer(balance);\n    }\n\n    /**\n     * @dev See {IERC721-approve}.\n     */\n    function approve(address to, uint256 tokenId) public virtual override {\n        address owner = ownerOf(tokenId);\n        require(to != owner, \"ERC721: approval to current owner\");\n\n        require(_msgSender() == owner || isApprovedForAll(owner, _msgSender()),\n            \"ERC721: approve caller is not owner nor approved for all\"\n        );\n\n        _approve(to, tokenId);\n    }\n\n    /**\n     * @dev See {IERC721-getApproved}.\n     */\n    function getApproved(uint256 tokenId) public view override returns (address) {\n        require(_exists(tokenId), \"ERC721: approved query for nonexistent token\");\n\n        return _tokenApprovals[tokenId];\n    }\n\n    /**\n     * @dev See {IERC721-setApprovalForAll}.\n     */\n    function setApprovalForAll(address operator, bool approved) public virtual override {\n        require(operator != _msgSender(), \"ERC721: approve to caller\");\n\n        _operatorApprovals[_msgSender()][operator] = approved;\n        emit ApprovalForAll(_msgSender(), operator, approved);\n    }\n\n    /**\n     * @dev See {IERC721-isApprovedForAll}.\n     */\n    function isApprovedForAll(address owner, address operator) public view override returns (bool) {\n        return _operatorApprovals[owner][operator];\n    }\n\n    /**\n     * @dev See {IERC721-transferFrom}.\n     */\n    function transferFrom(address from, address to, uint256 tokenId) public virtual override {\n        //solhint-disable-next-line max-line-length\n        require(_isApprovedOrOwner(_msgSender(), tokenId), \"ERC721: transfer caller is not owner nor approved\");\n\n        _transfer(from, to, tokenId);\n    }\n\n    /**\n     * @dev See {IERC721-safeTransferFrom}.\n     */\n    function safeTransferFrom(address from, address to, uint256 tokenId) public virtual override {\n        safeTransferFrom(from, to, tokenId, \"\");\n    }\n\n    /**\n     * @dev See {IERC721-safeTransferFrom}.\n     */\n    function safeTransferFrom(address from, address to, uint256 tokenId, bytes memory _data) public virtual override {\n        require(_isApprovedOrOwner(_msgSender(), tokenId), \"ERC721: transfer caller is not owner nor approved\");\n        _safeTransfer(from, to, tokenId, _data);\n    }\n\n    /**\n     * @dev Safely transfers `tokenId` token from `from` to `to`, checking first that contract recipients\n     * are aware of the ERC721 protocol to prevent tokens from being forever locked.\n     *\n     * `_data` is additional data, it has no specified format and it is sent in call to `to`.\n     *\n     * This internal function is equivalent to {safeTransferFrom}, and can be used to e.g.\n     * implement alternative mechanisms to perform token transfer, such as signature-based.\n     *\n     * Requirements:\n     *\n     * - `from` cannot be the zero address.\n     * - `to` cannot be the zero address.\n     * - `tokenId` token must exist and be owned by `from`.\n     * - If `to` refers to a smart contract, it must implement {IERC721Receiver-onERC721Received}, which is called upon a safe transfer.\n     *\n     * Emits a {Transfer} event.\n     */\n    function _safeTransfer(address from, address to, uint256 tokenId, bytes memory _data) internal virtual {\n        _transfer(from, to, tokenId);\n        require(_checkOnERC721Received(from, to, tokenId, _data), \"ERC721: transfer to non ERC721Receiver implementer\");\n    }\n\n    /**\n     * @dev Returns whether `tokenId` exists.\n     *\n     * Tokens can be managed by their owner or approved accounts via {approve} or {setApprovalForAll}.\n     *\n     * Tokens start existing when they are minted (`_mint`),\n     * and stop existing when they are burned (`_burn`).\n     */\n    function _exists(uint256 tokenId) internal view returns (bool) {\n        return _tokenOwners.contains(tokenId);\n    }\n\n    /**\n     * @dev Returns whether `spender` is allowed to manage `tokenId`.\n     *\n     * Requirements:\n     *\n     * - `tokenId` must exist.\n     */\n    function _isApprovedOrOwner(address spender, uint256 tokenId) internal view returns (bool) {\n        require(_exists(tokenId), \"ERC721: operator query for nonexistent token\");\n        address owner = ownerOf(tokenId);\n        return (spender == owner || getApproved(tokenId) == spender || isApprovedForAll(owner, spender));\n    }\n\n    /**\n     * @dev Safely mints `tokenId` and transfers it to `to`.\n     *\n     * Requirements:\n     d*\n     * - `tokenId` must not exist.\n     * - If `to` refers to a smart contract, it must implement {IERC721Receiver-onERC721Received}, which is called upon a safe transfer.\n     *\n     * Emits a {Transfer} event.\n     */\n    function _safeMint(address to, uint256 tokenId) internal virtual {\n        _safeMint(to, tokenId, \"\");\n    }\n\n    /**\n     * @dev Same as {xref-ERC721-_safeMint-address-uint256-}[`_safeMint`], with an additional `data` parameter which is\n     * forwarded in {IERC721Receiver-onERC721Received} to contract recipients.\n     */\n    function _safeMint(address to, uint256 tokenId, bytes memory _data) internal virtual {\n        _mint(to, tokenId);\n        require(_checkOnERC721Received(address(0), to, tokenId, _data), \"ERC721: transfer to non ERC721Receiver implementer\");\n    }\n\n    /**\n     * @dev Mints `tokenId` and transfers it to `to`.\n     *\n     * WARNING: Usage of this method is discouraged, use {_safeMint} whenever possible\n     *\n     * Requirements:\n     *\n     * - `tokenId` must not exist.\n     * - `to` cannot be the zero address.\n     *\n     * Emits a {Transfer} event.\n     */\n    function _mint(address to, uint256 tokenId) internal virtual {\n        require(to != address(0), \"ERC721: mint to the zero address\");\n        require(!_exists(tokenId), \"ERC721: token already minted\");\n\n        _beforeTokenTransfer(address(0), to, tokenId);\n\n        _holderTokens[to].add(tokenId);\n\n        _tokenOwners.set(tokenId, to);\n\n        emit Transfer(address(0), to, tokenId);\n    }\n\n    /**\n     * @dev Destroys `tokenId`.\n     * The approval is cleared when the token is burned.\n     *\n     * Requirements:\n     *\n     * - `tokenId` must exist.\n     *\n     * Emits a {Transfer} event.\n     */\n    function _burn(uint256 tokenId) internal virtual {\n        address owner = ownerOf(tokenId);\n\n        _beforeTokenTransfer(owner, address(0), tokenId);\n\n        // Clear approvals\n        _approve(address(0), tokenId);\n\n        _holderTokens[owner].remove(tokenId);\n\n        _tokenOwners.remove(tokenId);\n\n        emit Transfer(owner, address(0), tokenId);\n    }\n\n    /**\n     * @dev Transfers `tokenId` from `from` to `to`.\n     *  As opposed to {transferFrom}, this imposes no restrictions on msg.sender.\n     *\n     * Requirements:\n     *\n     * - `to` cannot be the zero address.\n     * - `tokenId` token must be owned by `from`.\n     *\n     * Emits a {Transfer} event.\n     */\n    function _transfer(address from, address to, uint256 tokenId) internal virtual {\n        require(ownerOf(tokenId) == from, \"ERC721: transfer of token that is not own\");\n        require(to != address(0), \"ERC721: transfer to the zero address\");\n\n        _beforeTokenTransfer(from, to, tokenId);\n\n        // Clear approvals from the previous owner\n        _approve(address(0), tokenId);\n\n        _holderTokens[from].remove(tokenId);\n        _holderTokens[to].add(tokenId);\n\n        _tokenOwners.set(tokenId, to);\n\n        emit Transfer(from, to, tokenId);\n    }\n\n\n    /**\n     * @dev Internal function to invoke {IERC721Receiver-onERC721Received} on a target address.\n     * The call is not executed if the target address is not a contract.\n     *\n     * @param from address representing the previous owner of the given token ID\n     * @param to target address that will receive the tokens\n     * @param tokenId uint256 ID of the token to be transferred\n     * @param _data bytes optional data to send along with the call\n     * @return bool whether the call correctly returned the expected magic value\n     */\n    function _checkOnERC721Received(address from, address to, uint256 tokenId, bytes memory _data)\n        private returns (bool)\n    {\n        if (!to.isContract()) {\n            return true;\n        }\n        bytes memory returndata = to.functionCall(abi.encodeWithSelector(\n            IERC721Receiver(to).onERC721Received.selector,\n            _msgSender(),\n            from,\n            tokenId,\n            _data\n        ), \"ERC721: transfer to non ERC721Receiver implementer\");\n        bytes4 retval = abi.decode(returndata, (bytes4));\n        return (retval == _ERC721_RECEIVED);\n    }\n\n    function _approve(address to, uint256 tokenId) private {\n        _tokenApprovals[tokenId] = to;\n        emit Approval(ownerOf(tokenId), to, tokenId);\n    }\n\n    /**\n     * @dev Hook that is called before any token transfer. This includes minting\n     * and burning.\n     *\n     * Calling conditions:\n     *\n     * - When `from` and `to` are both non-zero, ``from``'s `tokenId` will be\n     * transferred to `to`.\n     * - When `from` is zero, `tokenId` will be minted for `to`.\n     * - When `to` is zero, ``from``'s `tokenId` will be burned.\n     * - `from` cannot be the zero address.\n     * - `to` cannot be the zero address.\n     *\n     * To learn more about hooks, head to xref:ROOT:extending-contracts.adoc#using-hooks[Using Hooks].\n     */\n    function _beforeTokenTransfer(address from, address to, uint256 tokenId) internal virtual { }\n\n    /**\n     * @dev Reserves the name if isReserve is set to true, de-reserves if set to false\n     */\n    function toggleReserveName(string memory str, bool isReserve) internal {\n        _nameReserved[toLower(str)] = isReserve;\n    }\n\n    /**\n     * @dev Check if the name string is valid (Alphanumeric and spaces without leading or trailing space)\n     */\n    function validateName(string memory str) public pure returns (bool){\n        bytes memory b = bytes(str);\n        if(b.length < 1) return false;\n        if(b.length > 25) return false; // Cannot be longer than 25 characters\n        if(b[0] == 0x20) return false; // Leading space\n        if (b[b.length - 1] == 0x20) return false; // Trailing space\n\n        bytes1 lastChar = b[0];\n\n        for(uint i; i<b.length; i++){\n            bytes1 char = b[i];\n\n            if (char == 0x20 && lastChar == 0x20) return false; // Cannot contain continous spaces\n\n            if(\n                !(char >= 0x30 && char <= 0x39) && //9-0\n                !(char >= 0x41 && char <= 0x5A) && //A-Z\n                !(char >= 0x61 && char <= 0x7A) && //a-z\n                !(char == 0x20) //space\n            )\n                return false;\n\n            lastChar = char;\n        }\n\n        return true;\n    }\n\n    /**\n     * @dev Converts the string to lowercase\n     */\n    function toLower(string memory str) public pure returns (string memory){\n        bytes memory bStr = bytes(str);\n        bytes memory bLower = new bytes(bStr.length);\n        for (uint i = 0; i < bStr.length; i++) {\n            // Uppercase character\n            if ((uint8(bStr[i]) >= 65) && (uint8(bStr[i]) <= 90)) {\n                bLower[i] = bytes1(uint8(bStr[i]) + 32);\n            } else {\n                bLower[i] = bStr[i];\n            }\n        }\n        return string(bLower);\n    }\n}",
  "sourcePath": "/Users/ujjwaljain/Downloads/defi_tutorial/src/contracts/BitQueens.sol",
  "compiler": {
    "name": "solc",
    "version": "0.7.0+commit.9e61f92b.Emscripten.clang"
  },
  "schemaVersion": "3.3.3",
  "updatedAt": "2021-02-28T05:42:27.024Z",
  "devdoc": {
    "details": "Extends ERC721 Non-Fungible Token Standard basic implementation",
    "kind": "dev",
    "methods": {
      "approve(address,uint256)": {
        "details": "See {IERC721-approve}."
      },
      "balanceOf(address)": {
        "details": "See {IERC721-balanceOf}."
      },
      "changeName(uint256,string)": {
        "details": "Changes the name for Hashmask tokenId"
      },
      "constructor": {
        "details": "Initializes the contract by setting a `name` and a `symbol` to the token collection."
      },
      "finalizeStartingIndex()": {
        "details": "Finalize starting index"
      },
      "getApproved(uint256)": {
        "details": "See {IERC721-getApproved}."
      },
      "getNFTPrice()": {
        "details": "Gets current Hashmask Price"
      },
      "isApprovedForAll(address,address)": {
        "details": "See {IERC721-isApprovedForAll}."
      },
      "isMintedBeforeReveal(uint256)": {
        "details": "Returns if the NFT has been minted before reveal phase"
      },
      "isNameReserved(string)": {
        "details": "Returns if the name has been reserved."
      },
      "mintNFT(uint256)": {
        "details": "Mints Masks"
      },
      "name()": {
        "details": "See {IERC721Metadata-name}."
      },
      "owner()": {
        "details": "Returns the address of the current owner."
      },
      "ownerOf(uint256)": {
        "details": "See {IERC721-ownerOf}."
      },
      "renounceOwnership()": {
        "details": "Leaves the contract without owner. It will not be possible to call `onlyOwner` functions anymore. Can only be called by the current owner. NOTE: Renouncing ownership will leave the contract without an owner, thereby removing any functionality that is only available to the owner."
      },
      "safeTransferFrom(address,address,uint256)": {
        "details": "See {IERC721-safeTransferFrom}."
      },
      "safeTransferFrom(address,address,uint256,bytes)": {
        "details": "See {IERC721-safeTransferFrom}."
      },
      "setApprovalForAll(address,bool)": {
        "details": "See {IERC721-setApprovalForAll}."
      },
      "supportsInterface(bytes4)": {
        "details": "See {IERC165-supportsInterface}. Time complexity O(1), guaranteed to always use less than 30 000 gas."
      },
      "symbol()": {
        "details": "See {IERC721Metadata-symbol}."
      },
      "toLower(string)": {
        "details": "Converts the string to lowercase"
      },
      "tokenByIndex(uint256)": {
        "details": "See {IERC721Enumerable-tokenByIndex}."
      },
      "tokenNameByIndex(uint256)": {
        "details": "Returns name of the NFT at index."
      },
      "tokenOfOwnerByIndex(address,uint256)": {
        "details": "See {IERC721Enumerable-tokenOfOwnerByIndex}."
      },
      "totalSupply()": {
        "details": "See {IERC721Enumerable-totalSupply}."
      },
      "transferFrom(address,address,uint256)": {
        "details": "See {IERC721-transferFrom}."
      },
      "transferOwnership(address)": {
        "details": "Transfers ownership of the contract to a new account (`newOwner`). Can only be called by the current owner."
      },
      "validateName(string)": {
        "details": "Check if the name string is valid (Alphanumeric and spaces without leading or trailing space)"
      },
      "withdraw()": {
        "details": "Withdraw ether from this contract (Callable by owner)"
      }
    },
    "title": "Hashmasks contract",
    "version": 1
  },
  "userdoc": {
    "kind": "user",
    "methods": {},
    "version": 1
  }
}